:100000000C9446000C943A180C943A180C943A1834
:100010000C943A180C943A180C943A180C943A1818
:100020000C943A180C943A180C943A180C943A1808
:100030000C943A180C943A180C943A180C943A18F8
:100040000C943A180C943A180C94850D0C943A18A8
:100050000C943A180C94170B0C943A180C943A1808
:100060000C943A180C943A180100025D80025D026B
:100070007B003082027B027F80027F02A00030A0E2
:1000800002A002A18002A102A20030C111241FBE61
:10009000CFEFD8E0DEBFCDBFE8E6F0E040E017C02C
:1000A000B591A59135912591059107FD0CC09591CC
:1000B0008591EF01F92FE82F05900D92A217B30754
:1000C000D9F7FE0104C01D92A217B307E1F7EC387F
:1000D000F40731F70E94BB0C0C94D717F894FFCFAC
:1000E00053313A0053323A0053333A00252E3066EA
:1000F0002000252E32665600252E3266562000201E
:04010000202020009B
:1001040068076C094C836A9074A07AC00080688880
:0601140000846C820081F2
:10011A00494E4600696E66004E414E006E616E00A1
:06012A00286E696C29003B
:10013000A3EAB0E0EEE9F0E00C94B5164C015901E9
:10014000C756DF4F488359836A83C959D040212C51
:10015000312C6E012BE8C20ED11C85E2782E2601CF
:1001600030E8632ECE018D569F4FC456DF4F9983E2
:100170008883CC59D0409C0140E8CF55DF4F28837D
:1001800039834A83C15AD040C756DF4F4881C95985
:10019000D040C656DF4F5881CA59D040C556DF4FB0
:1001A0006881CB59D040FA01849167FD8081882312
:1001B00009F4C9C3CF57DF4F19821882C158D04004
:1001C0008FEF9FEFCD57DF4F99838883C358D0407F
:1001D000CB57DF4F19821882C558D040A1E0B0E05C
:1001E000AC0FBD1FC957DF4FB983A883C758D04094
:1001F000E0E8F0E0C757DF4FF983E883C958D04003
:10020000CA01A62FE12CF12CFC012491A7FD20812D
:1002100021111BC0E114F10401F19701C4010E94F6
:10022000AE15C756DF4F88819981AA81C959D04040
:100230008E0D9F1DA11DF7FCAA95C756DF4F888321
:100240009983AA83C959D04008C00196A11D2532BF
:1002500009F3FFEFEF1AFF0AD7CFC756DF4F8881A8
:100260009981AA81C959D040FC012491A7FD208120
:10027000253209F056C39C014A2F2F5F3F4F4F4F45
:10028000C256DF4F288339834A83CE59D040C756A0
:10029000DF4F288339834A83C959D040C756DF4F7F
:1002A00088819981AA81C959D040FC012491A7FD78
:1002B00020812B3241F4CF57DF4F28813981C1583B
:1002C000D04024600BC02C32CCF02D3259F5CF57E2
:1002D000DF4F28813981C158D0402160CF57DF4F8F
:1002E00039832883C158D0400196A11DC756DF4FDE
:1002F00088839983AA83C959D040D0CF203241F452
:10030000CF57DF4F28813981C158D0402860E6CFD0
:10031000233291F4CF57DF4F28813981C158D04023
:100320002061DCCF203341F4CF57DF4F2881398162
:10033000C158D0402260D2CF2A3299F50196A11D32
:10034000C756DF4F88839983AA83C959D040D50106
:10035000ED91FC911197CF0102968D939C93808132
:100360009181CB57DF4F99838883C558D04097FF41
:100370003EC0CF57DF4F28813981C158D040B1E00E
:100380002B27CF57DF4F39832883C158D040919511
:1003900081959109CB57DF4F99838883C558D04009
:1003A00026C0BC018A2F0E942915CB57DF4F9983A5
:1003B0008883C558D040C756DF4F288139814A818C
:1003C000C959D040F901849147FD8081082E000C65
:1003D000990BC0970A9758F42F5F3F4F4F4FC7565E
:1003E000DF4F288339834A83C959D040E4CFCF57A0
:1003F000DF4F88819981C158D04080FF07C08D7F31
:10040000CF57DF4F99838883C158D040C756DF4FFD
:1004100088819981AA81C959D040FC012491A7FD06
:1004200020812E3209F058C0CD57DF4F1982188233
:10043000C358D0409C014A2F2F5F3F4F4F4FC756A4
:10044000DF4F288339834A83C959D040F901549139
:1004500047FD50815A32D1F40296A11DC756DF4F95
:1004600088839983AA83C959D040D501ED91FC9125
:100470001197CF0102968D939C9380819181CD57E6
:10048000DF4F99838883C358D04026C0842FB90199
:100490000E942915CD57DF4F99838883C358D040D8
:1004A000C756DF4F288139814A81C959D040F901A7
:1004B000849147FD8081082E000C990BC0970A9704
:1004C00058F42F5F3F4F4F4FC756DF4F2883398374
:1004D0004A83C959D040E4CFCE0187569F4F0E942E
:1004E0004814182FC756DF4F2881C959D040C65627
:1004F000DF4F8881CA59D040C556DF4F9881CB590C
:10050000D040E22FF82F849197FD8081082E000CB7
:10051000990B0E94EB178936910509F45AC0B4F47F
:100520008336910509F466C144F48532910509F4D6
:10053000A1C18136910529F1B3C18436910509F431
:1005400048C0883691050CF42DC1AAC180379105A9
:1005500009F4CBC04CF48E36910509F419C18F36DD
:10056000910509F47CC09CC18537910509F454C0FC
:100570008837910509F496C08337910509F090C139
:1005800058C1612F70E0A501C6010E947716892B22
:1005900009F4B7C1C756DF4F88819981AA81C9592B
:1005A000D0409C014A2F2F5F3F4F4F4FC756DF4F20
:1005B000288339834A83C959D040FC012491A7FD7F
:1005C0002081A601BE016F577F4FC4010E943418DD
:1005D00095C1612F70E0950141E050E0C6010E9495
:1005E0003F0E892B09F48DC1C756DF4F8881998151
:1005F000AA81C959D0400196A11DC756DF4F8883F3
:100600009983AA83C959D040A601BE016F577F4F75
:10061000C4010E94311872C1612F70E0950140E061
:1006200050E0C6010E943F0E892B09F46AC1C756EB
:10063000DF4F88819981AA81C959D0400196A11DB7
:10064000C756DF4F88839983AA83C959D040A60132
:10065000BE016F577F4FC4010E9431184FC1612FF7
:1006600070E0950140E050E0C6010E943F0E892BEA
:1006700009F447C1C756DF4F88819981AA81C959BA
:10068000D0400196A11DC756DF4F88839983AA8366
:10069000C959D040A601BE016F577F4FC4010E94C7
:1006A00031182CC1612F70E0950140E050E0C60187
:1006B0000E943F0E892B09F424C1C756DF4F888161
:1006C0009981AA81C959D0409C014A2F2F5F3F4F81
:1006D0004F4FC756DF4F288339834A83C959D040CB
:1006E000FC012491A7FD20814BC0950140E050E022
:1006F00060EF70E0C6010E943F0E892B09F401C132
:10070000C756DF4F88819981AA81C959D040019687
:10071000A11DC756DF4F88839983AA83C959D0404A
:1007200086E02AE231E040E0F901DE01AD56BF4F3C
:10073000742F0E949A17D6012C9111963C91119713
:1007400012964C91129713965C91139714966C9194
:10075000149715967C91159716968C911697179667
:100760009C91A0E00E94BF1751F400E010E0CF552B
:10077000DF4F288139814A81C15AD040B9C028E76A
:10078000A601BE016F577F4FC4010E943418B6C046
:10079000612F70E09501A1014E0D5F1DC6010E9401
:1007A0005412AFC0612F70E0A501C6010E947716F8
:1007B000892B09F4A6C0C756DF4F88819981AA8189
:1007C000C959D0409C014A2F2F5F3F4F4F4FC7560A
:1007D000DF4F288339834A83C959D040FC012491D3
:1007E000A7FD2081A601BE016F577F4FC4010E9463
:1007F000A90484C0103809F084C0C756DF4F88812F
:100800009981AA81C959D0400196A11DC756DF4FD1
:1008100088839983AA83C959D040D501ED91FC9171
:100820001197CF0102968D939C938081F60180836E
:100830005BC0103809F065C0C756DF4F88819981C9
:10084000AA81C959D0400196A11DC756DF4F8883A0
:100850009983AA83C959D040D501ED91FC91119794
:10086000CF0103968D939C9320813181428100E0DA
:1008700010E03EC0103809F044C0C756DF4F8881F1
:100880009981AA81C959D0400196A11DC756DF4F51
:1008900088839983AA83C959D040F601708224C005
:1008A000D6017C92C256DF4F288139814A81CE59C8
:1008B000D040C756DF4F288339834A83C959D04077
:1008C000CF57DF4F19821882C158D040CB57DF4F26
:1008D00019821882C558D0408FEF9FEFCD57DF4F58
:1008E00099838883C358D04001E010E0462D9201DF
:1008F000BE016F577F4FC4010E9437188E0D9F1D98
:1009000011C0C756DF4F88819981AA81C959D0404B
:100910000196A11DC756DF4F88839983AA83C959C1
:10092000D040C7017101E80EF91EE214F3044CF443
:100930008FE490E090935C0280935B028FEF9FEFD7
:1009400003C0170121CCC101CD55DF4FE2E10C946A
:02095000D116BE
:10095200A6E2B0E0EFEAF4E00C94B5169F8F8E8F1A
:10096200798F688F122FFB010190F081E02DFA87B9
:10097200E987FB01C280D380248135813C8B2B8B9C
:100982008085918599A388A30680F781E02DFA835B
:10099200E983FA0180809180A280B38020E030E078
:1009A200A901C501B4010E941C1887FF06C0B7FA4D
:1009B200B094B7F8B0948DE204C0F985F2FF0CC38D
:1009C2008BE2E981FA8180832B893C8921503109AC
:1009D20038872F8341E050E05A8B498B06C08B89C0
:1009E2009C8998878F831A8A198AD501C401BF7797
:1009F2000097E0E8AE07EFE7BE07D9F4212F110F09
:100A0200330B2154310989819A8149895A89840F8A
:100A1200951F2A31310520F44AE151E060E003C01C
:100A22004EE151E060E00E947F176EE171E080E0EC
:100A32001EC00197A048BF4730F1212F110F330B81
:100A42002154310989819A8149895A89840F951FD4
:100A52002A31310520F442E251E060E003C046E26F
:100A620051E060E00E947F1766E271E080E00E9440
:100A72001D17E981FA81AF0160E8E984FA840B89E4
:100A82001C899C01A1C220E030E0A901C501B4018A
:100A92000E941C181B821C82882309F467C0F0E89C
:100AA200FD832FE32E83212C312C20E030E040E225
:100AB20051E46B817C818D819E810E942A18F62EE1
:100AC200072F8D879B87A50194010E942118181674
:100AD20054F03FEF231A330AFB820C834D854D837A
:100AE2005B855E83E2CF1C861B862B813C814D8118
:100AF2005E81C501B4010E941C1887FF3DC084EDD0
:100B020028168EEF380604F5EB85FC85EF2BE1F411
:100B120020E030E040E85AE5C501B4010E942A18FD
:100B22004B015C0120E030E040E85AE56B817C81BA
:100B32008D819E810E942A186B837C838D839E8384
:100B420021E030E03C872B8720E030E040E251E4B6
:100B52006B817C818D819E810E9426186B837C83B0
:100B62008D839E8331E0231A3108BFCF40E84D8345
:100B72005FE35E83212C312C812F110F990B9BA3F4
:100B82008AA30E94EB178B8FD7FC03C0DEA2CDA2F3
:100B920004C0E6E0F0E0FEA3EDA3FB8DF73641F4DE
:100BA200CD2809F01EC221E030E03EA32DA319C2D8
:100BB2008B8D8D8B04C037FE25C296E69D8BEDA1F1
:100BC200FEA13196FEA3EDA3FD89F63699F437FE18
:100BD20008C01B821C8220E82D833FE33E83212C28
:100BE200312C4B8D473631F08DA19EA1820D931D84
:100BF2009EA38DA39B819B87EC81ED87FD81FE8B5C
:100C02002E812A8F750164011D8E1C8E8C8D9D8D07
:100C1200EDA1FEA18E179F07C1F12B853D854E895F
:100C22005A8DC701B6010E9426180E942F102B016F
:100C32003C010E940F186CA38701760117FB1095E7
:100C420017F910952B853D854E895A8DC301B20146
:100C52000E94F80E6B017C01F7FAF094F7F8F09419
:100C620020E030E040E251E46B857D858E899A8DEB
:100C72000E9426186B877D878E8B9A8F4C8D5D8D97
:100C82004F5F5F4F5D8F4C8FC1CF20E030E040EA75
:100C920050E46B857D858E899A8D0E942A182B01DE
:100CA2003C019B01AC01C701B6010E941C1887FDE3
:100CB2000BC0A3019201C701B6010E941C18811149
:100CC20006C0FCA1F0FD03C0412C512C3201A3014E
:100CD2009201C501B4010E94F4174B015C012D89F8
:100CE200253611F0310102C0612C712C23014DA176
:100CF2005EA1441A550AC988DA8800E010E01C8611
:100D02001B8689859A85807199279F8B8E8B6414A7
:100D1200750431F48B859C85892B09F49AC0A6C091
:100D2200DD8ECC8EE88DF98D808591850597C8166C
:100D3200D90680F72B813C814D815E81C501B401CA
:100D42000E9426180E942F106D877E878F87988BAE
:100D52000E940F18CB01EE89FF89EF2B69F4892BD2
:100D620059F4FB8DF73641F477FE06C098012F5FE8
:100D72003F4F3D8F2C8F43C04B855C85452BB1F493
:100D820077FE14C05FEFC51AD50AE981FA818C8D0E
:100D92009D8DE80FF91F9EE29083EF81F8853197D0
:100DA200F887EF8321E030E03C872B87E981FA81E5
:100DB200EC0DFD1D1D8F0C8F8C8D9D8D892B49F0A7
:100DC20030E331934C8D5D8D415051095D8F4C8FD5
:100DD200F3CFC8018C0D9D1D2F813885201B310B4F
:100DE2006C01EFEFCE1ADE0AE981FA81E80FF91FF2
:100DF200605D6083A9014150510958874F83850185
:100E0200740117FB109517F910952B813C814D81C8
:100E12005E816D857E858F8598890E94F80E4B01D3
:100E22005C01B7FAB094B7F8B09420E030E040E249
:100E320051E46B817C818D819E810E9426186B8397
:100E42007C838D839E8351E0651A71080C8D1D8D04
:100E52005ECFF985F4FF0AC0E981FA81EC0DFD1D30
:100E62008EE2808396012F5F3F4F690149815A814B
:100E72004C0D5D1D5C874B87FA011082FD89F536AA
:100E820009F061C0E981FA8128A139A1E20FF31FBB
:100E92003197108237FE06C031942194310801E067
:100EA20010E002C000E010E0E8A1F9A13197498109
:100EB2005A81E40FF51F22E030E08AE0E82EF12C9F
:100EC200CF0149815A81841B950B2114310479F099
:100ED200C101B7010E943317805D82931B0121502B
:100EE20031098F819885019798878F83E9CF1216F0
:100EF200130674F3FC013197E40FF51F012B11F473
:100F02002BE201C02DE220830297E981FA81E80FEA
:100F1200F91F2AA13BA1215431092A31310510F0D0
:100F220025E601C025E420832F813885225031092E
:100F320038872F83C816D90634F4AF0160E88B8551
:100F42009C850E947F1749815A813A0180E8882E48
:100F5200998591FF2EC090FD2CC0EF81F8851E1659
:100F62001F063CF5882DB3010E941D1729813A8185
:100F7200820F931F9C0149815A81241B350BE989F9
:100F8200FA892E173F074CF0FC012081EF81F8858A
:100F9200E80FF91F20830197EDCF4F81588560E359
:100FA20070E089819A818E0F9F1F0E94E2171C8A2E
:100FB2001B8A882DB3010E941D17E984FA840B89CC
:100FC2001C899C01682DA3018E8D9F8D0E945E114C
:100FD200A696E2E10C94D116598553FF00CD80E22A
:100FE200F0CC2CEF22162FEF32064CF04DA15EA171
:100FF200241635060CF4DFCD55E65D8BFBCD35E6C8
:0A1002003D8BF8CD46E64D8BF5CD91
:10100C0080FF2FC090910601923469F495B121E0D4
:10101C0030E00090070102C0220F331F0A94E2F760
:10102C00292B25B94FC0933469F498B121E030E0F5
:10103C000090070102C0220F331F0A94E2F7292BFC
:10104C0028B940C09434F1F59BB121E030E0009018
:10105C00070102C0220F331F0A94E2F7292B2BB988
:10106C0031C090910601923471F495B121E030E0D9
:10107C000090070102C0220F331F0A94E2F720955B
:10108C00292325B91FC0933471F498B121E030E0C5
:10109C000090070102C0220F331F0A94E2F720953B
:1010AC00292328B90FC0943469F49BB121E030E0B6
:1010BC000090070102C0220F331F0A94E2F720951B
:1010CC0029232BB981FF2FC090910901923469F427
:1010DC0095B121E030E000900A0102C0220F331FCD
:1010EC000A94E2F7292B25B94FC0933469F498B1CF
:1010FC0021E030E000900A0102C0220F331F0A9455
:10110C00E2F7292B28B940C09434F1F59BB121E0CA
:10111C0030E000900A0102C0220F331F0A94E2F75C
:10112C00292B2BB931C090910901923471F495B1EE
:10113C0021E030E000900A0102C0220F331F0A9414
:10114C00E2F72095292325B91FC0933471F498B187
:10115C0021E030E000900A0102C0220F331F0A94F4
:10116C00E2F72095292328B90FC0943469F49BB178
:10117C0021E030E000900A0102C0220F331F0A94D4
:10118C00E2F7209529232BB982FF2FC090910C01F7
:10119C00923469F495B121E030E000900D0102C069
:1011AC00220F331F0A94E2F7292B25B94FC0933431
:1011BC0069F498B121E030E000900D0102C0220FDB
:1011CC00331F0A94E2F7292B28B940C09434F1F567
:1011DC009BB121E030E000900D0102C0220F331FC3
:1011EC000A94E2F7292B2BB931C090910C0192345F
:1011FC0071F495B121E030E000900D0102C0220F96
:10120C00331F0A94E2F72095292325B91FC0933484
:10121C0071F498B121E030E000900D0102C0220F72
:10122C00331F0A94E2F72095292328B90FC0943470
:10123C0069F49BB121E030E000900D0102C0220F57
:10124C00331F0A94E2F7209529232BB983FF2FC073
:10125C0090910F01923469F495B121E030E0009047
:10126C00100102C0220F331F0A94E2F7292B25B973
:10127C004FC0933469F498B121E030E00090100134
:10128C0002C0220F331F0A94E2F7292B28B940C061
:10129C009434F1F59BB121E030E00090100102C0D4
:1012AC00220F331F0A94E2F7292B2BB931C09091EE
:1012BC000F01923471F495B121E030E000901001EF
:1012CC0002C0220F331F0A94E2F72095292325B977
:1012DC001FC0933471F498B121E030E000901001FC
:1012EC0002C0220F331F0A94E2F72095292328B954
:1012FC000FC0943469F49BB121E030E000901001F0
:10130C0002C0220F331F0A94E2F7209529232BB930
:10131C0084FF2FC090911201923469F495B121E0B1
:10132C0030E00090130102C0220F331F0A94E2F741
:10133C00292B25B94FC0933469F498B121E030E0E2
:10134C000090130102C0220F331F0A94E2F7292BDD
:10135C0028B940C09434F1F59BB121E030E0009005
:10136C00130102C0220F331F0A94E2F7292B2BB969
:10137C0031C090911201923471F495B121E030E0BA
:10138C000090130102C0220F331F0A94E2F720953C
:10139C00292325B91FC0933471F498B121E030E0B2
:1013AC000090130102C0220F331F0A94E2F720951C
:1013BC00292328B90FC0943469F49BB121E030E0A3
:1013CC000090130102C0220F331F0A94E2F72095FC
:1013DC0029232BB985FF2FC090911501923469F404
:1013EC0095B121E030E00090160102C0220F331FAE
:1013FC000A94E2F7292B25B94FC0933469F498B1BC
:10140C0021E030E00090160102C0220F331F0A9435
:10141C00E2F7292B28B940C09434F1F59BB121E0B7
:10142C0030E00090160102C0220F331F0A94E2F73D
:10143C00292B2BB931C090911501923471F495B1CF
:10144C0021E030E00090160102C0220F331F0A94F5
:10145C00E2F72095292325B91FC0933471F498B174
:10146C0021E030E00090160102C0220F331F0A94D5
:10147C00E2F72095292328B90FC0943469F49BB165
:10148C0021E030E00090160102C0220F331F0A94B5
:10149C00E2F7209529232BB986FF2FC090911801D4
:1014AC00923469F495B121E030E00090190102C04A
:1014BC00220F331F0A94E2F7292B25B94FC093341E
:1014CC0069F498B121E030E00090190102C0220FBC
:1014DC00331F0A94E2F7292B28B940C09434F1F554
:1014EC009BB121E030E00090190102C0220F331FA4
:1014FC000A94E2F7292B2BB931C090911801923440
:10150C0071F495B121E030E00090190102C0220F76
:10151C00331F0A94E2F72095292325B91FC0933471
:10152C0071F498B121E030E00090190102C0220F53
:10153C00331F0A94E2F72095292328B90FC094345D
:10154C0069F49BB121E030E00090190102C0220F38
:10155C00331F0A94E2F7209529232BB988237CF5B5
:10156C0080911B01823469F425B181E090E00090F8
:10157C001C0102C0880F991F0A94E2F7822B85B9CF
:10158C000895833469F428B181E090E000901C0147
:10159C0002C0880F991F0A94E2F7822B88B908952C
:1015AC008434F1F52BB181E090E000901C0102C075
:1015BC00880F991F0A94E2F7822B8BB908958091BA
:1015CC001B01823471F425B181E090E000901C0184
:1015DC0002C0880F991F0A94E2F78095822385B97F
:1015EC000895833471F428B181E090E000901C01DF
:1015FC0002C0880F991F0A94E2F78095822388B95C
:10160C000895843469F42BB181E090E000901C01C2
:10161C0002C0880F991F0A94E2F7809582238BB938
:02162C0008951F
:10162E001F920F920FB60F9211242F933F934F9349
:10163E005F936F937F938F939F93AF93BF93CF934C
:10164E00DF93EF93FF938091A102833021F08530D9
:10165E0009F455C0A7C0609178007091790080E0C0
:10166E0090E00E94711520E030E040EA50E40E94C4
:10167E002A1820E030EC4FE754E40E942618262F5B
:10168E00372F462F572F682F792F4093EA0150930B
:10169E00EB016093EC017093ED019F938F933F9359
:1016AE002F9382EF90E0A0E0AF939F938F93CEEEB7
:1016BE00D1E0DF93CF930E945B17D0938301C09349
:1016CE00820162E081E00E94A71760918201709111
:1016DE00830180E80E94571685E08093A1020E9444
:1016EE008D17EAE7F0E08081806480838DB79EB726
:1016FE0009960FB6F8949EBF0FBE8DBF53C0609172
:10170E0078007091790080E090E00E94711520E0E1
:10171E0030E040EA50E40E942A1820E030EC4FE717
:10172E0054E40E942618262F372F462F572F682F46
:10173E00792F409357025093580260935902709339
:10174E005A029F938F933F932F9388EF90E0A0E0E0
:10175E00AF939F938F93C4E8D1E0DF93CF930E9412
:10176E005B17D093E901C093E80162E087E00E9425
:10177E00A7176091E8017091E90180E80E94571661
:10178E0083E08093A1020E948D17EAE7F0E080814A
:10179E00806480838DB79EB709960FB6F8949EBF6E
:1017AE000FBE8DBFFF91EF91DF91CF91BF91AF91A2
:1017BE009F918F917F916F915F914F913F912F915B
:0A17CE000F900FBE0F901F901895AA
:1017D800AF92BF92CF92EF92FF920F93CF93DF9386
:1017E800CDB7DEB76E970FB6F894DEBF0FBECDBF8C
:1017F80069837A838B832C833D834E83EF82F886BB
:101808000987AA86BB86CC8689A59AA5ABA58D87AC
:101818009E87AF878CA59DA5AEA5888B998BAA8B33
:101828008FA598A9A9A98B8B9C8BAD8B8AA99BA9FD
:10183800ACA98E8B9F8BA88F8DA99EA9AFA9898FE4
:101848009A8FAB8F88AD99ADAAAD8C8F9D8FAE8FD7
:10185800AE014F5F5F4F60E82EE130E080E091E03D
:101868000E94EC1680E090E057C0FC01EE0FFF1FCD
:10187800E80FF91F21E030E02C0F3D1FE20FF31FA6
:1018880020812234B9F444B1FC01EE0FFF1FE80FA8
:10189800F91F21E030E02C0F3D1FE20FF31F21E07C
:1018A80030E0018002C0220F331F0A94E2F7242B94
:1018B80024B931C02334B9F447B1FC01EE0FFF1F3E
:1018C800E80FF91F21E030E02C0F3D1FE20FF31F56
:1018D80021E030E0018002C0220F331F0A94E2F7B2
:1018E800242B27B918C02434B1F44AB1FC01EE0FF7
:1018F800FF1FE80FF91F21E030E02C0F3D1FE20F1A
:10190800F31F21E030E0018002C0220F331F0A9448
:10191800E2F7242B2AB901968A30910508F4A5CF5D
:1019280015B818B81BB88FE39CE90197F1F700C008
:10193800000080E80E94960F88E30E94960F8CE0D2
:101948000E94960F86E00E94960F81E00E94960FF3
:101958006E960FB6F894DEBF0FBECDBFDF91CF9164
:0E1968000F91FF90EF90CF90BF90AF90089539
:10197600F894A0908502B0908602C0908702E0900D
:101986008802F090890200918A0220918B023091A0
:101996008C0240918D0260918E0270918F0280912F
:1019A6009002909193029F93909192029F939091AF
:1019B60091029F93909196029F93909195029F9387
:1019C600909194029F93909199029F93909198027F
:1019D6009F93909197029F9390919C029F939091D1
:1019E6009B029F9390919A029F9390919F029F933F
:1019F60090919E029F9390919D029F939091840255
:101A06009F93909183029F93909182029F930E944D
:101A1600EC0B61E082E00E94A71760EE70E080E0C8
:101A26000E94571661E088E00E94A71764EE70E0F6
:101A360080E00E94571661E08EE00E94A71768EECC
:101A460070E080E00E94571680917E028F9380910D
:101A56007D028F9380917C028F9380917B028F937E
:101A66008CEE90E0A0E0AF939F938F93CEE1D1E010
:101A7600DF93CF930E945B17BE0180E80E941D177B
:101A8600815080935602D0935402C09353022DB7CF
:101A96003EB7255E3F4F0FB6F8943EBF0FBE2DBF33
:101AA600813021F0843020F08DE003C08FE001C04A
:101AB6008EE08093520262E00E94A7176091530263
:101AC6007091540280E80E94571602E010E020E070
:101AD60043E060E082E00E9491130F2EF7E0CF2EE4
:101AE600F02DEE24E39400E021E04091A10260E0B5
:101AF60081E00E949714EAE7F0E0808180648083A9
:041B06007894FFCF01
:101B0A001F920F920FB60F9211242F933F934F9368
:101B1A005F936F937F938F939F93AF93BF93CF936B
:101B2A00DF93EF93FF938091C600809355028091D3
:101B3A00C00085FFFCCF809155021092A0028B3223
:101B4A0019F08D32C1F02EC020E030E040E85FE3AA
:101B5A0060917B0270917C0280917D0290917E025D
:101B6A000E94F41760937B0270937C0280937D023B
:101B7A0090937E021AC020E030E040E85FE3609173
:101B8A007B0270917C0280917D0290917E020E947C
:101B9A00F31760937B0270937C0280937D0290938B
:101BAA007E0203C081E08093A0028091A00281306E
:101BBA0009F44DC062E08DE00E94A71760917F0290
:101BCA0070918002809181020E94571680917E0254
:101BDA008F9380917D028F9380917C028F93809165
:101BEA007B028F938CEE90E0A0E0AF939F938F934C
:101BFA00CEE1D1E0DF93CF930E945B17BE0180E86C
:101C0A000E941D17815080935602D0935402C093AC
:101C1A0053022DB73EB7275F3F4F0FB6F8943EBF2A
:101C2A000FBE2DBF813021F0843020F08DE003C03B
:101C3A008FE001C08EE08093520262E00E94A717F3
:101C4A00609153027091540280E80E945716FF91E6
:101C5A00EF91DF91CF91BF91AF919F918F917F913A
:101C6A006F915F914F913F912F910F900FBE0F90FF
:041C7A001F9018950A
:101C7E000F931F93CF93DF93FC01D9016838710541
:101C8E0031F194F461387105B1F12CF460387105BD
:101C9E0009F478C09FC06238710509F459C06438E0
:101CAE00710509F46FC096C0603A710509F448C019
:101CBE002CF46039710509F44BC08CC0603C710581
:101CCE0009F476C0603F710509F472C083C0CD91EE
:101CDE00DC911197CE0102968D939C93452B39F092
:101CEE009881892F880F880B908381835BC08881B0
:101CFE008083118268C0CD91DC911197CE0104963C
:101D0E008D939C93452B99F088819981AA81BB81F3
:101D1E00AC01BD01770F440B542FBA018083918320
:101D2E00A283B383448345834683478328C00881B7
:101D3E0019812A813B81008311832283338345C01D
:101D4E00CD91DC911197CE0102968D939C9323C079
:101D5E00CD91DC911197CE0108968D939C9378814D
:101D6E0069815A814B813C812D819E818F81708347
:101D7E00618352834383348325839683878381E0F3
:101D8E0090E02AC0CD91DC911197CE0102968D93F1
:101D9E009C93452BA1F099812881892F880F880B60
:101DAE002083918382838383848385838683E6CF96
:101DBE00CD91DC911197CE0102968D939C93088163
:101DCE001981008311831282138214821582168266
:101DDE001782D5CF80E090E0DF91CF911F910F91C8
:021DEE00089556
:101DF000A5E1B0E0EEEFFEE00C94B5164701580106
:101E00000E942A182B013C01A80197010E94F41797
:101E1000162FC72ED82EF92E862F9C2DAD2DBF2D17
:101E200089839A83AB83BC83AA81FB81EC81ED809B
:101E30003E802F8008850D8B5E2F5F71212F3A2FFA
:101E40004F2F60E070E080E090E021153105410502
:101E500000E15007610571058105910509F05EC03B
:101E60005E2F6E2D732D822D9D8904E30E9499169D
:101E70002D873E874F87588B698B7A8B8B8B9C8BFA
:101E80008D859E8597708F3F974009F447C0A301C9
:101E90009201612F7C2D8D2D9F2D0E94F3179B01A8
:101EA000AC01C501B4010E941C188823B9F1498610
:101EB0005A866B867C8629853A854B855C85C5016B
:101EC000B4010E94F417B62E872E982EA92E262F25
:101ED000372F482F592F612F7C2D8D2D9F2D0E943C
:101EE0001C18811118C02B2D8B2D982DA92DBA2DC2
:101EF00089839A83AB83BC833A814B815C816E2D4D
:101F0000732D822D9D89A1E00E94CB17122FC32E25
:101F1000D42EF52E03C01B2D6401FA2C612F7C2DCD
:0C1F20008D2D9F2D6596E2E10C94D116EA
:101F2C0090910001923471F495B121E030E0009071
:101F3C00010102C0220F331F0A94E2F720952923D6
:101F4C0025B91FC0933471F498B121E030E00090B2
:101F5C00010102C0220F331F0A94E2F720952923B6
:101F6C0028B90FC0943469F49BB121E030E00090A3
:101F7C00010102C0220F331F0A94E2F72095292396
:101F8C002BB90E94060880910301823469F425B1B3
:101F9C0081E090E00090040102C0880F991F0A9420
:101FAC00E2F7822B85B91DC0833469F428B181E036
:101FBC0090E00090040102C0880F991F0A94E2F788
:101FCC00822B88B90EC0843461F42BB181E090E08F
:101FDC000090040102C0880F991F0A94E2F7822B2B
:101FEC008BB98FE79EE30197F1F700C00000809159
:101FFC000301823471F425B181E090E0009004017A
:10200C0002C0880F991F0A94E2F78095822385B944
:10201C000895833471F428B181E090E000900401BC
:10202C0002C0880F991F0A94E2F78095822388B921
:10203C000895843469F42BB181E090E000900401A0
:10204C0002C0880F991F0A94E2F7809582238BB9FE
:02205C000895E5
:10205E004F925F926F927F928F929F92AF92BF92AA
:10206E00CF92DF92EF92FF92CF93DF93CDB7DEB791
:10207E0028970FB6F894DEBF0FBECDBF6B017C0163
:10208E00DC01CB0147E1B695A795979587954A95C3
:10209E00D1F799278F579109873191059CF597FDB7
:1020AE0036C088248A94982C3FE7A32EB12C04C006
:1020BE00B594A794979487948A95D2F7D501C401C5
:1020CE008C219D21AE21BF21892B8A2B8B2BD1F008
:1020DE0020E030E040E85BE7C701B6010E94F4174C
:1020EE006D837E838F839887F7FE04C0C80CD91C3E
:1020FE00EA1CFB1C80949094A094B094C820D92024
:10210E00EA20FB205C2D4D2D3E2D2F2D21C020E0F1
:10211E0030E040E85BE7C701B6010E94F41769831F
:10212E007A838B839C83F7FE0FC0D701C601880F7D
:10213E00991FAA1FBB1F892B8A2B8B2B19F350E0DB
:10214E0040E030E82FEB04C050E040E030E020E00B
:10215E00652F742F832F922F28960FB6F894DEBF1B
:10216E000FBECDBFDF91CF91FF90EF90DF90CF905C
:10217E00BF90AF909F908F907F906F905F904F9099
:02218E000895B2
:1021900090910001923469F495B121E030E0009013
:1021A000010102C0220F331F0A94E2F7292B25B93F
:1021B0001DC0933469F498B121E030E00090010132
:1021C00002C0220F331F0A94E2F7292B28B90EC050
:1021D000943461F49BB121E030E00090010102C031
:1021E000220F331F0A94E2F7292B2BB90E9406080D
:1021F00080910301823469F425B181E090E0009080
:10220000040102C0880F991F0A94E2F7822B85B956
:102210001DC0833469F428B181E090E0009004018E
:1022200002C0880F991F0A94E2F7822B88B90EC06A
:10223000843461F42BB181E090E00090040102C08D
:10224000880F991F0A94E2F7822B8BB98FE79EE3E0
:102250000197F1F700C0000080910301823471F40E
:1022600025B181E090E00090040102C0880F991F21
:102270000A94E2F78095822385B90895833471F436
:1022800028B181E090E00090040102C0880F991FFE
:102290000A94E2F78095822388B90895843469F41A
:1022A0002BB181E090E00090040102C0880F991FDB
:0C22B0000A94E2F7809582238BB9089510
:1022BC002F923F924F926F927F928F92AF92BF92DA
:1022CC00CF92DF92EF92FF920F931F93CF93DF93F6
:1022DC00CDB7DEB766970FB6F894DEBF0FBECDBF95
:1022EC005C013A01862E6901C701817099279C8B8C
:1022FC008B8BE0FC1DC020173107D4F47801EC184F
:10230C00FD08FE8AED8AA70191E1E916F10410F0AF
:10231C0040E150E060E270E0CE0101969A8B898B2F
:10232C000E94E21789899A891C0120E8422E0BC071
:10233C009601682DA301C5010E94AE15C016D106E9
:10234C00ECF2C60125C090E1E916F10458F020E149
:10235C0030E0642DA101C5010E94AE1580E1E81AA0
:10236C00F108F1CF2D893E892F70332789899A89FD
:10237C00AC0160E8C5010E94AE158B899C89892B44
:10238C0031F49601682DA301C5010E94AE15C80158
:10239C0066960FB6F894DEBF0FBECDBFDF91CF911E
:1023AC001F910F91FF90EF90DF90CF90BF90AF9067
:0E23BC008F907F906F904F903F902F900895DC
:1023CA0010C00E94011858F00E94FA1740F029F430
:1023DA005F3F29F00C94161851110C9409180C94AB
:1023EA002E180E94351668F39923B1F3552391F3F9
:1023FA00951B550BBB27AA2762177307840738F06A
:10240A009F5F5F4F220F331F441FAA1FA9F335D0C6
:10241A000E2E3AF0E0E832D091505040E695001C7A
:10242A00CAF72BD0FE2F29D0660F771F881FBB1F34
:10243A00261737074807AB07B0E809F0BB0B802D12
:10244A00BF01FF2793585F4F3AF09E3F510578F03E
:10245A000C9416180C9409185F3FE4F3983ED4F3D1
:10246A00869577956795B795F7959F5FC9F7880F12
:10247A00911D9695879597F90895E1E0660F771F64
:10248A00881FBB1F621773078407BA0720F0621BF5
:0E249A00730B840BBA0BEE1F88F7E0950895C4
:1024A800CF93DF93DC01F90164387105D9F164F445
:1024B8006138710521F16238710509F440C060384E
:1024C800710509F054C02EC060397105C1F184F45A
:1024D8006838710509F04BC0C081D181CE010296E0
:1024E80091838083E881F981ED93FC9340833CC01C
:1024F800603A7105B9F0603C7105A1F038C0C0813F
:10250800D181CE01029691838083E881F981ED9390
:10251800FC93052E000C660B770B40835183628376
:10252800738322C0C081D181CE01029691838083BA
:10253800E881F981ED93FC935183408315C0C081F4
:10254800D181CE01029691838083E881F981ED9350
:10255800FC9351834083852F880F880B8283838364
:10256800848385838683878381E090E002C080E04E
:0825780090E0DF91CF9108957E
:102580000FC00E94FA1738F00E94011820F095231E
:1025900011F00C9416180C942E1811240C94091890
:1025A0000E94351670F3959FC1F3950F50E0551FAB
:1025B000629FF001729FBB27F00DB11D639FAA2798
:1025C000F00DB11DAA1F649F6627B00DA11D661FE7
:1025D000829F2227B00DA11D621F739FB00DA11D08
:1025E000621F839FA00D611D221F749F3327A00DC2
:1025F000611D231F849F600D211D822F762F6A2F5E
:1026000011249F5750409AF0F1F088234AF0EE0FC2
:10261000FF1FBB1F661F771F881F91505040A9F7EF
:102620009E3F510580F00C9416180C9409185F3FDA
:10263000E4F3983ED4F3869577956795B795F7952B
:10264000E7959F5FC1F7FE2B880F911D96958795A3
:0426500097F9089559
:1026540011C00E94FA1738F00E94011820F039F4D2
:102664009F3F19F426F40C942E180EF4E095E7FB22
:102674000C941618E92F0E94351658F3BA176207FE
:1026840073078407950720F079F4A6F50C940818CD
:102694000EF4E0950B2EBA2FA02D0B01B901900179
:1026A4000C01CA01A0011124FF27591B99F0593FBD
:1026B40050F4503E68F11A16F040A22F232F342F05
:1026C4004427585FF3CF469537952795A795F04053
:1026D4005395C9F77EF41F16BA0B620B730B840B68
:1026E400BAF09150A1F0FF0FBB1F661F771F881F20
:1026F400C2F70EC0BA0F621F731F841F48F4879578
:1027040077956795B795F7959E3F08F0B0CF939569
:0E271400880F08F09927EE0F97958795089586
:102722000F931F939AB19E7F9AB99AB192609AB908
:10273200E0ECF0E010829081823011F432E001C0CE
:1027420030E0932B9093C000E1ECF0E01082908196
:10275200906890839081906190839081986090833B
:102762009081342F3470932B9083E2ECF0E010824E
:102772009081811102C030E401C030E0932BE2EC81
:10278200F0E09083908130E1639FB0011124692BC6
:102792006083908150E0440F551F492B4083908104
:1027A200811101C020E0292B2093C200813069F4FD
:1027B200F8013196EE0FFF1FE35AFD4F80819181A0
:1027C2009093C5008093C4000DC0823059F4000F6D
:1027D200111FF801E35AFD4F808191819093C5004A
:0A27E2008093C4001F910F91089529
:1027EC006F927F928F92EF92FF920F931F93CF93E2
:1027FC00DF93CDB7DEB761970FB6F894DEBF0FBE8F
:10280C00CDBFFE01319651E1DF011D925A95E9F7DA
:10281C00A2E0B1E0BA83A9839C838B8377FF09C0C4
:10282C008FE490E090935C0280935B028FEF9FEFBC
:10283C0019C03901842E7C01615071097F836E832C
:10284C009801682DA301CF010E9405174885598571
:10285C002E813F814217530708F49A01F701E20FCA
:10286C00F31F108261960FB6F894DEBF0FBECDBF7A
:10287C00DF91CF911F910F91FF90EF908F907F90F0
:04288C006F900895AC
:10289000CF92DF92EF92DC0190E0292F30E0220FFF
:1028A000331F6901032E000CEE086E2DA6014C5F4C
:1028B0005E4F6F4F6A01E62EFA018491E7FC80813A
:1028C00081110DC02F5F3F4F032E000C440B2C5F76
:1028D0003E4F4F4FF901849147FD808124C0CD9038
:1028E000DD90EC901297F6014491E7FC408184134F
:1028F00015C02F5F3F4F032E000C440B2C5F3E4F43
:102900004F4FF901949147FD90815FEFC51AD50AA9
:10291000E50ACD92DD92EC92129701C09F5F9B3049
:0E29200008F4BBCF892FEF90DF90CF90089581
:10292E00CF920F9310927C00813019F0823039F0E3
:10293E000BC0ECE7F0E080818064808305C0ECE79B
:10294E00F0E08081806C808380917C00613011F496
:10295E0090E201C090E0892BECE7F0E0808380816B
:10296E00483008F040E0482B40937C0080917A007C
:10297E00213011F490E801C090E0892BEAE7F0E0F5
:10298E0080838081013011F490E201C090E0892BA8
:10299E00EAE7F0E08083808188608083808197E021
:1029AE009C1508F4C12CC82AC0927A000F91CF90C2
:0229BE0008957A
:1029C0000F931F93CF93DF93DB012D913C911197D0
:1029D00030FF25C017964D915C91189715962D9153
:1029E0003C9116974217530778F41296ED91FC919B
:1029F0001397808312962D913C9113972F5F3F4F31
:102A000013963C932E93129717962D913C911897FD
:102A10002F5F3F4F18963C932E93179715C01D9626
:102A2000ED91FC911E97309719F48FEF9FEF0CC03A
:102A30008B01EC010995892BC1F7F80187819085FD
:102A4000019690878783CE01DF91CF911F910F91DF
:022A50000895E7
:102A5200CF939B01482FF901849147FD80818032F9
:102A6200C9F1682F082E000C770B69507109653087
:102A7200710580F18B3249F5A0E0B0E02F5F3F4F46
:102A82004F4F02C0A0E0B0E080E090E0CAE0F90160
:102A9200649147FD6081062E000C770B605371092B
:102AA2006A30710560F4C89FF001C99FF00D1124CE
:102AB2002F5F3F4F4F4FCF01861B970BE8CFAB2BBA
:102AC20069F491958195910909C08D32D9F6A1E0F9
:102AD200B0E0D4CF2F5F3F4F4F4FBDCFCF9108957E
:102AE200E89409C097FB3EF49095809570956195A6
:102AF2007F4F8F4F9F4F9923A9F0F92F96E9BB275C
:102B02009395F695879577956795B795F111F8CFD7
:102B1200FAF4BB0F11F460FF1BC06F5F7F4F8F4F42
:102B22009F4F16C0882311F096E911C0772321F038
:102B32009EE8872F762F05C0662371F096E8862FD0
:102B420070E060E02AF09A95660F771F881FDAF727
:0A2B5200880F9695879597F908956E
:102B5C006F927F928F92CF92DF92EF920F931F938F
:102B6C00CF93DF938C016A01E62EE9013A01862EA0
:102B7C00620E731E811C37FD8A94C614D704E804B8
:102B8C0079F0F6018491E7FC8081B801082E000CE5
:102B9C00990B0E94E0148FEFC81AD80AE80AEDCFFF
:102BAC00CE01DF91CF911F910F91EF90DF90CF90DD
:082BBC008F907F906F90089547
:102BC4000E943D1688F09F5798F0B92F9927B75166
:102BD400B0F0E1F0660F771F881F991F1AF0BA95BD
:102BE400C9F714C0B13091F00E940818B1E00895FB
:102BF4000C940818672F782F8827B85F39F0B93FED
:102C0400CCF3869577956795B395D9F73EF490956F
:0E2C14008095709561957F4F8F4F9F4F08956B
:102C2200990F0008550FAA0BE0E8FEEF16161706DB
:102C3200E807F907C0F012161306E407F50798F043
:102C4200621B730B840B950B39F40A2661F0232B5C
:102C5200242B252B21F408950A2609F4A140A695D8
:082C62008FEF811D811D089513
:102C6A0057FD9058440F551F59F05F3F71F0479533
:102C7A00880F97FB991F61F09F3F79F08795089518
:102C8A00121613061406551FF2CF4695F1DF08C037
:102C9A00161617061806991FF1CF86957105610554
:042CAA0008940895ED
:102CAE00CF92DF92EF92CF93DF936B01E82EC0E0CD
:102CBE00D0E003C00E94C8102196AE2DC6018C0F25
:102CCE009D1FA11DD7FDAA95FC018491A7FD8081B2
:102CDE008111F0CFDF91CF91EF90DF90CF900895DB
:102CEE00FA0160387105CCF0623871051CF063385A
:102CFE00710599F4A081B1819D012C5F3F4F318305
:102D0E0020834D915D916D917C91FC0140835183A7
:102D1E006283738381E090E0089580E090E00895EF
:102D2E0097FB10F8169400080F93083098F008508F
:102D3E00232F342F452F562F672F782F892F902D25
:102D4E00F4CF059497958795779567955795479501
:0C2D5E00379527950A95AAF70F91089564
:102D6A002F923F924F925F926F927F928F929F9291
:102D7A00AF92BF92CF92DF92EF92FF920F931F937F
:102D8A00CF93DF93CDB7DEB7CA1BDB0B0FB6F89430
:082D9A00DEBF0FBECDBF09949E
:102DA2002A88398848885F846E847D848C849B84D9
:102DB200AA84B984C884DF80EE80FD800C811B81E7
:102DC200AA81B981CE0FD11D0FB6F894DEBF0FBE16
:062DD200CDBFED010895E4
:102DD800CF92DF92EF926A01E62EDC01280F391FAD
:102DE800A217B30751F0F6014491E7FC40814D93D7
:102DF8004FEFC41AD40AE40AF3CFEF90DF90CF90D4
:022E080008952B
:102E0A00A2E0B0E0EBE0F7E10C94C3168C013A8340
:102E1A0029839E012F5F3F4F0E949800F80120816D
:102E2A0024FF02C08FEF9FEF2296E4E00C94DF1696
:102E3A00CF92DF92EF926B01E82EA82FCB01FC0113
:102E4A002491A7FD2081222319F00196A11DF7CF15
:0C2E5A008C199D09EF90DF90CF90089537
:102E660097FB072E16F4009407D077FD09D00E9431
:102E7600471707FC05D03EF4909581959F4F08951E
:082E8600709561957F4F0895DE
:102E8E00AA1BBB1B51E107C0AA1FBB1FA617B70782
:102E9E0010F0A61BB70B881F991F5A95A9F780959E
:082EAE009095BC01CD010895CF
:102EB600A0E0B0E0E1E6F7E10C94C5169E01265FBE
:102EC6003F4F4F81588569858D819E810E94B3173A
:062ED600E2E00C94E1169D
:102EDC00092E0394000C11F4882352F0BB0F40F41C
:102EEC00BF2B11F460FF04C06F5F7F4F8F4F9F4F5C
:022EFC00089537
:102EFE009A01462FDC01F901549147FD50815D93F3
:0C2F0E002F5F3F4F4F4F5111F6CF089539
:102F1A00ECE7F0E09081907F90839081883008F010
:0A2F2A0080E0892B80937C0008955D
:102F3400992777FD05C005900D920197E1F7089553
:0A2F440001900D920197E1F7089546
:102F4E00613021F481580E94960F0895623019F471
:082F5E0081540E94960F0895B2
:102F66000F931F9389019A01462F6FEF7FE70E9407
:082F7600F6131F910F9108955D
:102F7E000024A7FD00942A17300540055005600572
:082F8E0070058005900508950F
:102F96000024A7FD00942A0F301D401D501D601D02
:082FA600701D801D901D0895AF
:102FAE00EC010E943F180E943E18CE010E9440186C
:062FBE00CE010E943C1848
:102FC400FC01480F591FE417F50711F06193FBCF7B
:022FD40008955E
:102FD6009C01215431092A31310508F48062089593
:0E2FE6005058BB27AA270E942A130C946E177E
:0E2FF40000240A9416161706180609060895FA
:0E30020000240A9412161306140605060895FB
:0E301000E894BB2766277727CB0197F9089530
:0E301E000E94E2156894B1110C9409180895EF
:0C302C0097F99F6780E870E060E008956D
:0A3038000E94111608F481E00895CB
:0A3042000E94111608F48FEF0895A4
:08304C000E94E5110C946E17BF
:083054000E94C0120C946E17DB
:06305C009FEF80EC0895D7
:0630620080E090E00895FB
:0630680080E090E00895F5
:06306E0080E090E00895EF
:043074000C940000B8
:043078000E946E0044
:02307C000895B5
:02307E000895B3
:023080000895B1
:103082004003A001CF008A00670044003300220001
:0E3092001900100008000700030001000000F4
:0330A000FF00002E
:0330A300440700DF
:0330A600440600DD
:0330A900440500DB
:0330AC00440400D9
:0330AF00440200D8
:0330B200420400D5
:0330B500420300D3
:0330B800420200D1
:0330BB00420100CF
:0330BE00420000CD
:0130C100030B
:00000001FF
