:100000000C9441000C94B3030C94B3030C94B6020B
:100010000C9463020C94B3030C94B3030C94B303D9
:100020000C94B3030C94B3030C94B3030C94B30378
:100030000C94B3030C94B3030C9440030C94B303DB
:100040000C94B3030C94B3030C94B3030C94B30358
:100050000C94B3030C94B3030C94B3030C94B30348
:100060000C94B3030C94B3037E00B800CE00FF00E1
:10007000300158018901C301E20125020100010D8F
:10008000800011241FBECFEFD8E0DEBFCDBFECE76C
:10009000F0E040E017C0B591A5913591259105910B
:1000A00007FD0CC095918591EF01F92FE82F059080
:1000B0000D92A217B307D9F7FE0104C01D92A21733
:1000C000B307E1F7E138F40731F70E94FC020C9422
:0600D0009B03F894FFCF32
:1000D6000F931F93CF93DF93E82F8BB181708BB96A
:1000E6008E2F90E08A30910508F0E5C1FC01EC5CAA
:1000F600FF4F0C94AD032BB181E090E0EC01009032
:10010600060102C0CC0FDD1F0A94E2F7DC01009065
:10011600050102C0AA0FBB1F0A94E2F7FC0100907A
:10012600040102C0EE0FFF1F0A94E2F7BC01009023
:10013600030102C0660F771F0A94E2F7AC01009034
:10014600020102C0440F551F0A94E2F70090010114
:1001560002C0880F991F0A94E2F7AC2BEA2B6E2B8C
:10016600462B842B822B8BB9A6C12BB181E090E064
:10017600AC010090050102C0440F551F0A94E2F736
:100186000090040102C0880F991F0A94E2F7842B9D
:10019600822B8BB990C12BB181E090E0DC010090FD
:1001A600060102C0AA0FBB1F0A94E2F7FC010090E9
:1001B600050102C0EE0FFF1F0A94E2F7BC01009092
:1001C600030102C0660F771F0A94E2F7AC010090A4
:1001D600020102C0440F551F0A94E2F70090000185
:1001E60002C0880F991F0A94E2F7EA2B6E2B462B62
:1001F600842B822B8BB95FC12BB181E090E0DC01AF
:100206000090060102C0AA0FBB1F0A94E2F7FC0188
:100216000090050102C0EE0FFF1F0A94E2F7BC0131
:100226000090040102C0660F771F0A94E2F7AC0142
:100236000090030102C0440F551F0A94E2F7009094
:10024600000102C0880F991F0A94E2F7EA2B6E2B71
:10025600462B842B822B8BB92EC12BB181E090E0EB
:10026600FC010090050102C0EE0FFF1F0A94E2F7A1
:10027600BC010090040102C0660F771F0A94E2F7E2
:10028600AC010090010102C0440F551F0A94E2F729
:100296000090000102C0880F991F0A94E2F76E2BA6
:1002A600462B842B822B8BB906C12BB181E090E0C3
:1002B600DC010090060102C0AA0FBB1F0A94E2F7F8
:1002C600FC010090040102C0EE0FFF1F0A94E2F742
:1002D600BC010090030102C0660F771F0A94E2F783
:1002E600AC010090010102C0440F551F0A94E2F7C9
:1002F6000090000102C0880F991F0A94E2F7EA2BCA
:100306006E2B462B842B822B8BB9D5C02BB181E06B
:1003160090E0EC010090060102C0CC0FDD1F0A94AC
:10032600E2F7DC010090040102C0AA0FBB1F0A9489
:10033600E2F7FC010090030102C0EE0FFF1F0A94D2
:10034600E2F7BC010090020102C0660F771F0A9413
:10035600E2F7AC010090010102C0440F551F0A9458
:10036600E2F70090000102C0880F991F0A94E2F795
:10037600AC2BEA2B6E2B462B842B822B8BB99BC086
:100386002BB181E090E0BC010090060102C0660F2F
:10039600771F0A94E2F7AC010090050102C0440FF2
:1003A600551F0A94E2F70090040102C0880F991FB6
:1003B6000A94E2F7462B842B822B8BB97CC02BB197
:1003C60081E090E08C010090060102C0000F111F31
:1003D6000A94E2F7EC010090050102C0CC0FDD1F84
:1003E6000A94E2F7DC010090040102C0AA0FBB1FC9
:1003F6000A94E2F7FC010090030102C0EE0FFF1F12
:100406000A94E2F7BC010090020102C0660F771F52
:100416000A94E2F7AC010090010102C0440F551F97
:100426000A94E2F70090000102C0880F991F0A940F
:10043600E2F7C02BAC2BEA2B6E2B462B842B822BA0
:100446008BB939C02BB181E090E0EC010090060138
:1004560002C0CC0FDD1F0A94E2F7DC010090050113
:1004660002C0AA0FBB1F0A94E2F7FC010090040128
:1004760002C0EE0FFF1F0A94E2F7BC0100900301D1
:1004860002C0660F771F0A94E2F7AC0100900101E3
:1004960002C0440F551F0A94E2F70090000102C003
:1004A600880F991F0A94E2F7AC2BEA2B6E2B462B8A
:1004B600842B822B8BB9DF91CF911F910F910895D9
:1004C6001F920F920FB60F9211248F939F93359917
:1004D60008C081E0809309011092080185E08093AD
:1004E6000C01349909C081E080930A018FE59AEEE8
:1004F6000197F1F700C0000080910A01813061F593
:10050600349B2AC085B18E71823069F018F4882335
:1005160031F020C0843071F0883099F01BC085B16D
:10052600826085B917C085B1817E85B985B1846041
:1005360085B910C085B1817E85B985B1886085B9D8
:1005460009C085B1817E85B985B1806185B982E0B2
:100556008093070110920A019F918F910F900FBE11
:060566000F901F90189594
:10056C001F920F920FB60F9211248F939F9318998D
:10057C0009C081E080930B018FE59AEE0197F1F7AA
:10058C0000C0000080910B01813049F5189B27C0F9
:10059C0088B18F70813051F028F0823071F0843046
:1005AC0099F01BC088B1816088B917C088B1807F71
:1005BC0088B988B1826088B910C088B1807F88B949
:1005CC0088B1846088B909C088B1807F88B988B146
:1005DC00886088B981E08093070110920B019F918C
:0C05EC008F910F900FBE0F901F9018957C
:1005F800F8940E948D030E94A6030E947C03CC24D9
:10060800C3940F2EF7E0EF2EF02D04E025E046E02E
:1006180062E083E00E946703789480910901813049
:1006280081F480910C010E946B0010920901809165
:100638000C01811106C080E180936C0081E08093F9
:100648006B0080910701813049F488B18F6088B9C7
:1006580085B1817E85B981E00E946B008091070198
:100668008230D9F688B1807F88B985B18E6185B925
:0806780082E00E946B00D1CF6B
:100680001F920F920FB60F9211248F938091080141
:10069000843638F48F5F8093080182E080930901EB
:1006A00010C080910C01882349F0815080930C0187
:1006B00081E0809309011092080103C083E08093D8
:0E06C00009018F910F900FBE0F901F9018959B
:1006CE00CF92EF920F9380930601609305014093B2
:1006DE0004012093030100930201E0920101C092F4
:0A06EE0000010F91EF90CF900895E6
:1006F800EEE6F0E0108280818260808314BC84B5CD
:10070800826084BD8CE987BD15BC85B5856085BDD3
:02071800089542
:10071A001092C1008EE184B981E085B98FE087B972
:0C072A0080E388B98EEF8AB91BB80895EF
:10073600EC010E94B8030E94B703CE010E94B903E0
:06074600CE010E94B50384
:0E074C0083E08093680080E280936C00089543
:0C075A00EE0FFF1F0590F491E02D0994B4
:040766000C940000EF
:04076A000E94690080
:02076E000895EC
:020770000895EA
:020772000895E8
:00000001FF
